:020000040800F2
:100000000050002069100008671000086510000803
:100010006510000865100008651000080000000069
:100020000000000000000000000000006710000851
:100030006710000800000000671000083105000884
:1000400065100008651000086510000865100008BC
:1000500065100008651000086510000865100008AC
:10006000651000086510000865100008651000089C
:10007000651000086510000865100008651000088C
:10008000651000086510000865100008651000087C
:100090005905000865100008651000086510000883
:1000A000651000086510000865100008651000085C
:1000B000651000086510000865100008651000084C
:1000C000651000086510000865100008651000083C
:1000D0006510000865100008650300086510000839
:1000E000651000086510000865100008651000081C
:1000F000651000086510000865100008651000080C
:1001000065100008651000086510000865100008FB
:1001100065100008651000086510000865100008EB
:1001200065100008651000086510000865100008DB
:1001300065100008651000086510000865100008CB
:1001400065100008651000086510000865100008BB
:1001500030B5C4684568631CB3FBF5F205FB123289
:100160008568AA420BD00268C3601155C468426812
:10017000B4FBF2F302FB1343C360084630BD4FF0FB
:10018000FF30FBE7F8B506460F4615460024AC42A3
:1001900006DA395D3046FFF7DBFF002802DA6442F9
:1001A0002046F8BD0134F2E70346D0E9022082423E
:1001B00030B50CD0541C5D6818689C60805CB4FB42
:1001C000F5F205FB12429A6001B1087030BD4FF0A4
:1001D000FF30FBE73D4B3E4A70B500251A604FF4F7
:1001E0000062DD60C3E901253A493B4B3B4C2620C8
:1001F0003B4EC3E90012C3E9025500F0A3FF2046BD
:1002000004230222032100F008FD082301222946CD
:10021000204600F002FD3046324900F0B7FE30467D
:10022000082100F0C7FE2946304600F0CCFE2946E2
:10023000304600F0CEFE2946304600F0D6FE0C21B6
:10024000304600F0CCFE284A04F578441368304666
:1002500043F02003136000F0CEFE2046062100F09C
:100260000BFE2046214A062100F062FE2046204A6D
:10027000062100F066FE4FF480622046062100F061
:1002800070FE2046062100F041FE2046062100F0C7
:1002900027FE2046062100F02CFE2A462046062195
:1002A00000F012FE2A462046062100F001FE2046FC
:1002B0004FF40052062100F0EFFD2046062100F029
:1002C0002EFE3046BDE8704000F09ABE200C0020A3
:1002D000300C002020040020100400200008014001
:1002E0000044004080841E000C4400400444004050
:1002F000100000202DE9F8430621164800F02AFEE0
:10030000154CC0F580672668BE1B002E0FDA2568E5
:10031000124E134FB5F5806F03D300272760BDE859
:10032000F883715D3846FFF713FF0135F2E7F5D02A
:100330002568DFF82880DFF8289023683344AB4233
:10034000ECD9C5F3090318F803104846FFF700FF7E
:100350000135F2E7000002400C00002010000020F0
:100360001004002030B5104D85B02B680F4C019360
:1003700023680293019B1B060BD500210C48FFF755
:1003800013FF0390039B013305D1236823F08003FF
:10039000236005B030BD2846039989B205B0BDE899
:1003A000304000F032BE00BF004400400C4400402A
:1003B000200C002013B5074CFFF79CFF0DF107013F
:1003C0002046FFF7F1FE0130F6D09DF8070002B09D
:1003D00010BD00BF100400200A0902F13003392BC0
:1003E00088BF02F1370301F00F01037001F1300300
:1003F000392B88BF01F1370343707047034630380B
:10040000C0B2092806D9A3F14102052A94BF373B9F
:10041000573BD8B27047000007B5014601A8FFF767
:10042000DBFF022201A90348FFF7ACFE03B05DF831
:1004300004FB00BF200C002000B58BB0082862D858
:10044000DFE800F0051C2126323D424B5600002318
:10045000B422CDE9073306924FF4800205924FF49F
:100460005022CDE90332CDE9013300930122194630
:10047000264800F00FFA0BB05DF804FB00235A2267
:10048000CDE90733E7E700232422CDE90733E2E78C
:100490004FF4801200234FF0240CCDE90733CDE94F
:1004A000052C4FF4E022DCE700231222CDE90733CC
:1004B00006924FF4801205924FF44022D1E70023B8
:1004C0000922CDE90733F3E700230922CDE90733F9
:1004D000CDE905324FF4C022C3E74FF48012002368
:1004E0000320CDE90733CDE905204FF43022B8E7EA
:1004F0004FF4801200230221CDE90733CDE9052115
:100500004FF46022ADE74FF0FF30B4E700640040E5
:1005100070B5002406462546FFF74CFFFFF76EFF37
:1005200001352401AE4244EA0004F5D1204670BDF5
:10053000074B1A6801321A601A68B2F5FA7F06D1C1
:1005400000224FF4005103481A6000F015BD7047B7
:100550003414002000100140002210B58AB008AB0E
:1005600004930DF11A0303930DF11B0302930DF194
:100570001903019306AB05920093114607AB2B4874
:1005800000F0EBFA9DF819209DF81830002A38D0B9
:10059000002B14BF522172212548FFF7D9FD9DF889
:1005A0001830079893B3000EFFF736FF9DF81E0032
:1005B000FFF732FF9DF81D00FFF72EFF9DF81C008E
:1005C000FFF72AFF9DF81A10194801F00F0141F0BA
:1005D0003001FFF7BDFD00239DF81A205C1CDBB243
:1005E0009A421AD80D211248FFF7B2FD00210F4898
:1005F00000F0A8FA0F4A136843F0800313600AB0B2
:1006000010BD002B14BF54217421C5E7C0F3022193
:1006100030310748FFF79CFDD0E70AAA134413F8CE
:10062000080CFFF7F9FE2346D6E700BF0064004040
:10063000200C00200C4400402DE9FF480024894B89
:10064000894D1C702C7000F0D1FB40F2023000F09C
:10065000E0FC40F2033000F0DCFC4FF4417000F0AD
:10066000D8FC4FF40051814800F081FC4FF48041E8
:100670007E4800F07EFC4FF400417C4800F079FC9D
:1006800022464FF400530321784800F0C6FA224670
:100690004FF480430321754800F0BFFA22464FF41F
:1006A00000430321714800F0B8FA4FF4407000F0A5
:1006B000B0FC40F2913000F0ACFC4FF4207000F040
:1006C000A8FC4FF4407000F0A4FC40F2993000F018
:1006D000A0FC674A21461368664843F480431360D0
:1006E0004FF48073022200F098FA4FF48071614851
:1006F00000F03DFC4FF40073022203215D4800F03E
:100700008CFA142000F01EFD0121142000F028FDB9
:10071000594800F0B3F80520FFF78EFEA8460446BE
:1007200030B14FF40051514800F023FC00BFFDE709
:100730000123024601460093034600F08DF9022191
:100740004D4800F096F9FFF745FD204600F0DEFC2D
:1007500042F2273000F0D2FC00F0E4FC00F0EAFCAA
:10076000DFF814A1504600F051FA044608B900BF62
:10077000F8E7FFF71FFE54281CD00BD852282AD0C8
:1007800053283ED00025A9462F462E464FF0000B99
:1007900004AA62E0722828D07428F3D10320FFF75E
:1007A000B7FE81460120FFF7B3FE25460024C7B2FD
:1007B000264609E00820FFF7ABFE81460120FFF73F
:1007C000A7FE25460026C7B2082FDFD9FFF7F2FDA6
:1007D0000D28FBD1C6E70820FFF79AFE81460120CD
:1007E000FFF796FE2546C7B2E2E70320FFF790FE2B
:1007F00081460120FFF78CFE25462646C7B200241D
:10080000E2E70120FFF784FE0026C0B2FFF714FEE6
:10081000B14635463746FFF7CDFD0D28FBD145B132
:1008200004ABCDE90073224633464946504600F0FA
:1008300024F998F80030002B94D098F80030013B50
:10084000DBB288F800308DE702200392FFF760FEEC
:10085000039A02F80B000BF1010B5FFA8BF39F4236
:10086000F2D8D8E7381400203014002000100140DE
:1008700004000140000C014000640040044B984219
:100880000CBF40F2192040F21A2000F0CFBB00BF8D
:10089000006400402DE9F34104689DF8208024F0B5
:1008A0000204046004689DF824E044F0010404603C
:1008B0004FF6FF749DF828C09DF83C609DF840708D
:1008C0000194019C051D013C019414B14468E407A6
:1008D000F7D52C68E40770D50024C461002951D0F5
:1008E000016841F080010160002A4FD0026842F0A7
:1008F00040020260002B4DD0036843F020030360E8
:100900000368B8F1000F49D043F010030360036897
:10091000BEF1000F45D043F0080303600368BCF14B
:10092000000F41D043F004030360C369002F3ED0A1
:1009300043F00043C361C369002E3BD043F08043C2
:10094000C3610E9B0D99013BC3F309030B430C9943
:10095000C2690B430B990B431343C361036823F034
:10096000010303604FF6FF730193019B013B019369
:1009700013B12B68DB07F8D4286800F0010002B03F
:10098000BDE8F081016821F08001ACE7026822F047
:100990004002AEE7036823F02003B0E723F0100322
:1009A000B4E723F00803B8E723F00403BCE723F01F
:1009B0000043BFE723F08043C2E70120DFE70000E8
:1009C000F0B501241F4E844035689DF81C7045F039
:1009D00001053560E6431C4DD5F800C00CEA060C55
:1009E000C5F800C0DFF86CC009B3DCF80010214383
:1009F000CCF800101549F2B10A68224300F10060FA
:100A000000F6C8400A60C0000360069A059B436078
:100A10000F4B9AB11A6822431A6017B12B681C4316
:100A20002C60084A136823F001031360F0BDDCF862
:100A300000103140DCE70A683240DFE71A681640F0
:100A40001E60EAE7006600401C6600400466004045
:100A5000146600400C6600401FB59DF818400092D7
:100A6000CDE9013400220B460121FFF7A9FF04B0B4
:100A700010BD43691943416170472DE9F04180463B
:100A800080689DF818E04601079D2AD4D8F8080030
:100A900004012AD4D8F80800C00050D54FF4D0760D
:100AA000022006EB080422B3C90041F0040146F815
:100AB00008101BB1236843F002032360636823F02E
:100AC0000F03636062680EF00F03134363600EF15F
:100AD000FF33072B2AD8DFE803F02623201B181545
:100AE000120E4FF4C0760020DBE74FF4C8760120E9
:100AF000D7E74905DBE70027EB7963F31F67AB799D
:100B000063F317476B7963F30F272B7963F30707B9
:100B10004FF0000CEB7863F31F6CAB7863F3174C6A
:100B20006B7863F30F2C2B7863F3070CC4F808C0C1
:100B3000E760236843F001032360BDE8F0814FF0D4
:100B4000FF30FAE721B9C36843F02003C360704760
:100B5000036943F02003036170472DE9F3474FF425
:100B6000D876DDE90AA9DDE90C8EDDE90E4C4FF4FB
:100B7000E075CDE9006502AD05EB810555F8085C2F
:100B80004759461917F0040715BF01278AF8007066
:100B90008AF80070475916BF47597F0DFF081F603C
:100BA000435913F0020318BF012389F8003073681A
:100BB0001B0A88F80030736803F00F038EF80030CA
:100BC000BCF1000F03D073681B0CACF80030B568A3
:100BD000F368C5F3072625706670C5F30746C5F3AD
:100BE0000765E570C3F3072523716571C3F30745F6
:100BF000C3F30763A670A571E37122B102B0BDE82B
:100C0000F047FFF79FBF02B0BDE8F087836813F09D
:100C1000E05F14BF0120002070472DE9F04300265B
:100C20004FF00F0E43F6F8789C46036847684CFA7D
:100C300006F4E4071BD5072E94BF9946B946B4B213
:100C40008BBF4444A400A400A4B288BFA4B20EFA8F
:100C500004F529EA0509A51C02FA05F501FA04F4D0
:100C60002C4344EA0904082E2CBF274623460136AC
:100C7000102EDCD103604760BDE8F083024A1368A0
:100C800043F080731360704700100240062822D89A
:100C9000DFE800F004090E13181D1F000F4B186841
:100CA000C0F3406070470D4B1868C0F3C0607047D8
:100CB0000A4B1868C0F340707047084B1868C0F3BF
:100CC00040407047054B1868C0F340007047044B24
:100CD000F9E7044BF7E70020704700BF001002401F
:100CE0002010024024100240024608B51046FFF7CB
:100CF000CDFF0028FAD008BD06280CD8DFE800F0A8
:100D000004060C11161B1D00FFF7B8BF0C4A136830
:100D100043F0806313607047094A136843F08053BF
:100D2000F8E7074A136843F48033F3E7044A13688B
:100D300043F00103EEE7034AF9E7034AF7E700BF90
:100D4000001002402010024024100240034A1368A1
:100D500023F0030318431060704700BF04100240E3
:100D6000034A136823F4701343EA8040106070470D
:100D700004100240034A136823F4803343EA00401E
:100D80001060704704100240034A136823F40033D4
:100D900043EA40401060704704100240034A136861
:100DA00023F4404343EA803010607047041002404F
:100DB000034A136823F4605343EAC020106070476D
:100DC00004100240034A136823F4E06343EA00205E
:100DD0001060704704100240034A136823F0F003C8
:100DE00043EA0010106070470410024008B5042068
:100DF000FFF782FF0420FFF777FF0020FFF7A6FF31
:100E00000320FFF779FF0320FFF76EFF0120FFF7B4
:100E10009DFF0020FFF7E0FF0320FFF7BFFF042046
:100E2000FFF7D0FF0020FFF7C3FF022000F010F90A
:100E30000720FFF795FF0120FFF79CFF0020FFF739
:100E4000A3FFFFF71BFF0020FFF74EFF0220FFF775
:100E50007DFF044B044A05491360054A1160054AA9
:100E6000136008BD00A24A040000002000512502C2
:100E7000040000200800002014230022013903FB95
:100E800001039A60DA601A615A618B000F2142688F
:100E90009940114341607047142301395943083088
:100EA0000B5823F440530B500B581A430A50704709
:100EB00014230139594308300B5823F440630B5075
:100EC0000B581A430A50704714230139594308300C
:100ED0000B5823F440730B500B581A430A507047B9
:100EE00014230139594308300B5843F080030B5049
:100EF000704714230139594308300B5843F020033D
:100F00000B500B5823F480430B50704714230139C6
:100F1000594308300B5823F010030B50704714232B
:100F20000139594308300B5843F001030B50704707
:100F30001423013903FB01008368DB0758BF0261FA
:100F400070471423013903FB01008368DB0758BF96
:100F5000426170471423013959430C30085880B25C
:100F600070471423013959430C300A50704701610E
:100F70007047090401617047C36801EA030221EA6E
:100F8000030141EA0241016170470000064A074B34
:100F900090421B6804BF064B1B6803EB5103B3FB75
:100FA000F1F18160704700BF00380140040000206B
:100FB00008000020C36808290CBF23F4805343F4C1
:100FC0008053C3607047036923F4405319430161A0
:100FD0007047C36823F4C0631943C1607047C36896
:100FE00023F00C031943C1607047436923F4407335
:100FF000194341617047C36843F40053C3607047AD
:10100000436943F0400343617047C1F30801416005
:101010007047430900F01F02012003F1804303F5EC
:1010200004331968904008431860704700F01F02AD
:101030004309012003F1804303F50433196890400C
:10104000014319601A6822EA000018607047000026
:10105000034A136823F0070318431060704700BF6A
:1010600000200240FEE77047002238B51849194CAD
:1010700019485318834217D30021184A934217D3B3
:10108000174A184C1368184D43F400731360AC42B0
:1010900011D3164C164DAC4211D3FFF7CDFA154CB7
:1010A000154DAC420FD338BD135953500432E0E70D
:1010B00019600433E2E754F8043B9847E7E754F833
:1010C000043B9847E7E754F8043B9847E9E700BF3B
:1010D00000000020801100080C0000203C140020BB
:1010E00014ED00E080110008801100088011000854
:1010F000801100088011000880110008024B20F0C8
:101100007F401860704700BF14E000E0044A00F020
:101110000400136823F0040303431360704700BF07
:1011200010E000E0024A136843F0020313607047C6
:1011300010E000E0024A136843F0010313607047B7
:1011400010E000E0012243099B0003F1604300F03E
:101150001F0003F5614302FA00F0186070470000B9
:10116000432893BF00F16040044B00F00F0000F5EE
:1011700064408CBFC1540170704700BF14ED00E0A3
:0C11800000127A0000127A0000127A00BF
:040000050800106976
:00000001FF
